:020000040800F2
:1000000010040020350100084B0A000851090008BF
:10001000490A0008A1010008E50A000800000000E4
:100020000000000000000000000000004F0A00086F
:10003000A3010008000000004D0A0008510A000852
:100040004F0100084F0100084F0100084F01000850
:100050004F0100084F0100084F0100084F01000840
:100060004F0100084F0100084F0100084F01000830
:100070004F0100084F0100084F0100084F01000820
:100080004F0100084F0100084F0100080000000068
:100090000000000000000000000000004F01000808
:1000A0004F0100084F0100084F0100084F010008F0
:1000B0004F0100084F0100084F0100084F010008E0
:1000C0004F0100084F0100084F0100084F010008D0
:1000D0004F0100084F0100084F0100084F010008C0
:1000E0004F0100084F0100084F0100080000000008
:1000F0000000000000000000000000000000000000
:1001000000000000000000000000000000000000EF
:1001100000000000000000004F0100084F0100082F
:10012000DFF80CD000F02AF800480047250B000843
:10013000100400200648804706480047FEE7FEE717
:10014000FEE7FEE7FEE7FEE7FEE7FEE7FEE7FEE787
:10015000990A000821010008D2B201E000F8012B41
:10016000491EFBD270470022F6E710B513460A4637
:1001700004461946FFF7F0FF204610BD064C074D18
:1001800006E0E06840F0010394E807009847103467
:10019000AC42F6D3FFF7C8FF5C0B00087C0B0008ED
:1001A000FEE770472DE9F84FDFF8B891002409F118
:1001B000040A0AF1040B23460F270BF1040EC9E0D1
:1001C0000125A5402A40AA427DD1674ED1F804C03E
:1001D000ACEB0608B44532D014DCBCF1030F3AD0C6
:1001E00009DCBCF1000F2AD0BCF1010F1CD0BCF11E
:1001F000020F31D11DE0BCF1110F17D0BCF1120F6D
:100200002AD119E0B8F5881F19D006DCB8F5803F6F
:1002100015D0B8F5801F1FD111E0B8F5001F0ED022
:10022000B8F5041F18D10AE0CB6815E0CB681B1D98
:1002300012E0CB6808330FE0CB680C330CE08B681E
:100240002BB1012B4FF0080303D0456104E00423D8
:1002500002E0056100E00023FF2A01D8064601E024
:1002600000F104064FEA840501D9A5F12005D6F86E
:10027000008007FA05FC28EA0C0803FA05F548EAAD
:100280000508C6F800804D68ED0062D5374DAE69AF
:1002900046F00106AE61AD6924F0030605F00105E4
:1002A0000095334D06EB050CDCF80850A607360F19
:1002B00007FA06F825EA0805DFF8B880404503D1BB
:1002C0004FF0000817E044E0DFF8AC80404502D171
:1002D0004FF001080FE0DFF8A480404502D14FF055
:1002E000020808E0DFF89880404502D14FF003088B
:1002F00001E04FF0040808FA06F848EA0508CCF8CF
:1003000008804D68D9F80060ED034D4601D51643CD
:1003100000E096432E604D68DAF80060AD03554664
:1003200001D5164300E096432E604D68DBF800606F
:10033000ED025D4601D5164300E096432E604D6800
:10034000DEF80060AD02754601D5164300E0964325
:100350002E60641C0D682A46E5407FF431AFBDE88D
:10036000F88F00000004014000001110001002404E
:100370000000014000080140000C01400010014055
:10038000001401400AB1016170470904FBE7000055
:100390000148806870470000000000200248816822
:1003A00002781144816070470000002010B50320DE
:1003B00000F066F8002000F005F800F023F80020B7
:1003C00010BD000070B50D4D04464FF47A712878C9
:1003D000B1FBF0F00A490968B1FBF0F000F0A4FAB3
:1003E00048B9102C07D200222146501E00F028F8F0
:1003F00000206C6070BD012070BD00000000002076
:100400000C0000200C4808B5816941F001018161B0
:10041000816901F001010091C16941F08051C16120
:10042000C06900F0805000900448416821F0E0610C
:1004300041F08061416008BD0010024000000140B1
:10044000F0B40E4B1B680C46C3F30223C3F107053F
:10045000042D00D90425191D072901D2002300E02D
:10046000DB1E012606FA05F1491E214099409E40F7
:10047000761E16403143F0BC00F035BB0CED00E0B9
:10048000064900F0070208684FF6FF03184040EAEB
:100490000220034A10430860704700000CED00E0A2
:1004A0000000FA052DE9F041050027D02868334CFB
:1004B000810712D5400703D5606840F4E0606060B2
:1004C0002878000703D5606840F460506060606879
:1004D000A96820F0F000084360602878C00729D0A0
:1004E0006868012804D02168022804D0890703E045
:1004F0002168890300E08901002902DB0120BDE8B1
:10050000F081616821F0030101436160FFF740FF62
:10051000064641F2883706E0FFF73AFF801BB842F3
:1005200001D90320EBE76068696800F00C00B0EBCC
:10053000810FF1D12878400705D56068E96820F47B
:10054000E060084360602878000706D56068296984
:1005500020F4605040EAC100606000F017F8616864
:10056000074AC1F30311515CC840064908600648B8
:100570000068FFF727FF0020C1E7000000100240DD
:100580004C0B00080C0000200400002013A188B0D0
:100590000FC98DE80F0015A10DF1100C0FC98CE8E3
:1005A0000F00164A5168164801F00C03042B10D0B6
:1005B000082B0ED1C1F38343C9031DF803000AD5EC
:1005C000D16A04AA01F00F01515C0D4A5043B0FBFF
:1005D000F1F008B070470B494843FAE702030405FD
:1005E000060708090A0B0C0D0E0F10100102030478
:1005F00005060708090A0B0C0D0E0F10001002402B
:1006000000127A0000093D002DE9F84F040070D077
:100610002078C04DC00749D06868C0F38100012828
:1006200007D06868C0F38100022809D16868C00358
:1006300006D52868800339D560680028E7D035E002
:100640006068B0F5803F0BD010B1B0F5A02F11D08D
:10065000286820F480302860286820F4802002E098
:10066000286840F480302860606890B1FFF790FE01
:1006700006460AE0286840F480202860F0E700BFC2
:10068000FFF786FE801B642873D828688003F7D59F
:100690000CE0FFF77DFE064605E000BFFFF778FEA1
:1006A000801B6428F0D828688003F7D420789A4EFD
:1006B00080074FF001094FF0000839D5686810F045
:1006C0000C0F07D06868C0F38100022809D1686860
:1006D000C00306D42868800714D52069012808D1F2
:1006E00010E02069B0B1C6F80090FFF751FE074650
:1006F00005E00AE1FFF74CFEC01B0228C4D82868B9
:100700008007F7D52868616920F0F80040EAC10049
:1007100028600DE0C6F80080FFF73AFE074604E0C7
:10072000FFF736FEC01B022823D828688007F7D4BD
:10073000207800072CD57948A169D9B1C0F800907C
:10074000FFF726FE074604E0FFF722FEC01B022843
:100750000FD8686A8007F7D571484FF4FA510068DE
:10076000B0FBF1F0009000BF0098411E0091FAD25A
:100770000EE080E0C0F80080FFF70AFE074604E0C4
:10078000FFF706FEC01B022875D8686A8007F7D4F9
:100790002078400760D5E8690027C00008D4E869E0
:1007A00040F08050E861E869012700F08050009037
:1007B0005C480168C90513D40168834641F480711F
:1007C0000160FFF7E5FD824606E000BFFFF7E0FDB0
:1007D000A0EB0A0064284ED8DBF80000C005F5D570
:1007E000E06801280AD008B1052813D0286A20F053
:1007F00001002862286A20F0040002E0286A40F024
:1008000001002862E06841F2883B98B1FFF7C0FD23
:1008100082460BE0286A40F004002862EEE700BF41
:10082000FFF7B6FDA0EB0A0159455AD8286A8007A0
:10083000F6D50CE0FFF7ACFD824605E0FFF7A8FD1A
:10084000A0EB0A0159454CD8286A8007F6D41FB19D
:10085000E86920F08050E861E06988B36968C1F315
:100860008101022944D00228C6F8608004D0FFF735
:100870008FFD044638E034E0FFF78AFD074604E0C8
:10088000FFF786FDC01B02282BD828688001F7D40B
:10089000206AB0F5803F05D1E86AA16820F00F001A
:1008A0000843E862D4E908010843696821F4741137
:1008B00008436860C6F86090FFF76AFD044606E0EA
:1008C00025E000BFFFF764FD001B022809D8286857
:1008D0008001F7D51BE000BFFFF75AFD001B02287F
:1008E00002D90320BDE8F88F28688001F4D40EE017
:1008F0000128F7D06868226A00F48031914204D15F
:10090000616A00F47010884201D00120EAE70020FB
:10091000E8E700000010024000004242800442422A
:100920000C0000200070004010B5401EB0F1807F28
:1009300001D3012010BD4FF0E02460610F2160174A
:1009400000F0D1F80020A06107202061002010BD38
:10095000FEE7000070B50446134DC00701D0012228
:1009600000E0002201212846FFF70CFDA00701D579
:10097000012200E0002202212846FFF703FD600764
:1009800001D5012200E0002204212846FFF7FAFCED
:10099000200701D5012200E000222846BDE8704072
:1009A0000821FFF7EFBC0000000801402DE9F047E7
:1009B00086B0002420480094019402940394816935
:1009C00041F0040181618069DFF8708000F004006B
:1009D000049022460F214046FFF7D4FCDFF86090D8
:1009E00000220F214846FFF7CDFCDFF858A0002277
:1009F00001215046FFF7C6FC0F270226012500976C
:100A00000396CDE9015469464046FFF7CBFB0097BA
:100A10000396CDE9015469464846FFF7C3FBA80297
:100A2000CDE90005CDE9024669465046FFF7BAFB1D
:100A300006B0BDE8F0870000001002400008014049
:100A400000100140000C0140FEE7704770477047FE
:100A5000FFF7A4BC10B590B028216846FFF783FBD0
:100A600014210AA8FFF77FFB0220009001200490C8
:100A700010200024059007946846FFF7C5FD0F205D
:100A8000CDE90A040C940D9400210AA80E94FFF7F6
:100A900009FD10B010BD00000E48016841F00101D1
:100AA000016041680C4A1140416001680B4A1140E5
:100AB0000160016821F480210160416821F4FE0198
:100AC00041604FF41F0181600021C1620449C003ED
:100AD00008607047001002400000FFF8FFFFF6FEBC
:100AE00008ED00E0FEE70907090E002804DB00F12D
:100AF000E02080F80014704700F00F0000F1E020C3
:100B000080F8141D704702E008C8121F08C1002AAF
:100B1000FAD170477047002001E001C1121F002A7E
:100B2000FBD17047FFF742FCFFF794FFFFF73EFF52
:100B3000054D00242046FFF70DFF2846401EFDD23C
:100B4000641C0F2CF6DDF4E7BEC62D00000000008B
:100B50000000000001020304060708097C0B0008DE
:100B60000000002010000000060B00088C0B00089D
:100B70001000002000040000160B00080100000017
:0C0B800010000000000000000024F40041
:0400000508000121CD
:00000001FF
